:100000000C945B000C9481000C9481000C94810092
:100010000C9481000C9481000C9481000C9481005C
:100020000C9481000C9481000C9481000C9481004C
:100030000C9481000C9481000C9481000C9481003C
:100040000C94D7010C9481000C9428040C9481002A
:100050000C9481000C9481000C9481000C9481001C
:100060000C9481000C948100D6010000000700026E
:10007000010000030406000000000000000001026F
:100080000408102040800102040810200102040826
:100090001020040404040404040402020202020204
:1000A0000303030303030000232629000025282B54
:1000B000000024272A0011241FBECFEFD4E0DEBFAA
:1000C000CDBF11E0A0E0B1E0E8E4FBE002C00590A4
:1000D0000D92AC30B107D9F711E0ACE0B1E001C04E
:1000E0001D92A539B107E1F710E0CAE6D0E004C0DF
:1000F0002297FE010E94A005C836D107C9F70C94CB
:1001000006010C94000040E05BE460E070E08CE0ED
:1001100091E00E94130161E080910A010E94FC02BB
:1001200061E0809108010E94FC0261E0809106017B
:100130000E94FC0261E0809104010E94FC0261E0E7
:10014000809102010E94FC0261E0809100010E9406
:10015000FC020895CF93DF938CE091E00E94180198
:10016000882309F450C08CE091E00E941C018F3F6D
:1001700009F049C08CE091E00E9418018823D1F376
:100180008CE091E00E941C01EC018CE091E00E9467
:1001900018018823D1F38CE091E00E941C01C33048
:1001A000D105E1F0C430D10534F4C130D10561F09E
:1001B000229749F50EC0C530D105D1F0C530D10523
:1001C00094F0269701F519C0682F772780910A01CE
:1001D00018C0682F77278091080113C0682F7727F0
:1001E000809106010EC0682F77278091040109C015
:1001F000682F77278091020104C0682F77278091AC
:1002000000010E94A802DF91CF910895CFEFD4E0C2
:10021000DEBFCDBF0E9443020E9483000E94AA005D
:10022000FDCF08950895CB01BA010E94AE03089551
:100230000E94EF03992708950E94000408950E94E8
:100240001F040895862F0E9466040895CB010E9422
:100250006D040895862F0E94660408950F931F93DE
:100260008C016DE00E9422016AE0C8010E94220117
:100270001F910F9108950F931F938C010E942201EB
:10028000C8010E942E011F910F9108950F931F9393
:100290008C010E942601C8010E942E011F910F911E
:1002A00008950F931F938C010E942A01C8010E9498
:1002B0002E011F910F910895CB01BA0133274427D6
:1002C00055270E947A0408952AE00E945C0108954F
:1002D0000F931F938C010E946401C8010E942E019C
:1002E0001F910F910895AB01662777270E94640143
:1002F0000895EF92FF920F931F93CF93DF93EC013A
:100300007A018B0177FF0BC06DE20E9422011095EC
:100310000095F094E094E11CF11C011D111D2AE0F0
:10032000B801A701CE010E945C01DF91CF911F911E
:100330000F91FF90EF9008950F931F938C010E94EF
:100340007901C8010E942E011F910F910895211576
:10035000310521F4642F0E94220108952A303105CD
:1003600019F40E94790108950E945C0108950F9389
:100370001F938C010E94A701C8010E942E011F91AA
:100380000F910895AB01662757FD6095762F0E9467
:10039000790108950F931F938C010E94C201C80137
:1003A0000E942E011F910F910895089508951F92A4
:1003B0000F920FB60F9211248F939F93AF93BF9319
:1003C0008091110190911201A0911301B09114013B
:1003D0000196A11DB11D8093110190931201A0936C
:1003E0001301B0931401BF91AF919F918F910F9022
:1003F0000FBE0F901F90189560911101709112011E
:10040000809113019091140127E0660F771F881FD8
:10041000991F2A95D1F72DE730E040E050E00E9487
:100420004D05CA01B9010895AF92BF92CF92DF92F4
:10043000EF92FF920F931F935B016C010E94FC01EE
:100440007B018C010E94FC016E197F09800B910BCE
:100450006A157B058C059D05A8F31F910F91FF90F0
:10046000EF90DF90CF90BF90AF900895019751F03B
:10047000880F991F880F991F02972FB7F89401973B
:10048000F1F72FBF08957894109211011092120184
:10049000109213011092140184B5826084BD84B55A
:1004A000816084BD85B5826085BD85B5816085BD6F
:1004B000EEE6F0E0808181608083E1E8F0E0808119
:1004C00082608083808181608083E0E8F0E08081C9
:1004D00081608083E1EBF0E0808184608083E0EBE9
:1004E000F0E0808181608083ECE7F0E080818F77AD
:1004F0008083808180648083EAE7F0E0808184608B
:10050000808380818260808380818160808380811C
:10051000806880831092C100089590917C00907F44
:100520008F70982B90937C0080917A0080648093E8
:100530007A0080917A0086FDFCCF2091780080912E
:1005400079009927982F88273327822B932B08959A
:100550001F93CF93DF93182FEB0161E00E94FC0201
:10056000E12FFF27E659FF4F8491833051F48091AA
:100570008000806880938000D0938900C0938800B9
:1005800037C0843051F48091800080628093800075
:10059000D0938B00C0938A002BC0813029F484B59E
:1005A000806884BDC7BD24C0823029F484B58062D0
:1005B00084BDC8BD1DC0863041F48091B000806804
:1005C0008093B000C093B30013C0873041F4809192
:1005D000B00080628093B000C093B40009C0C038FE
:1005E000D10514F460E001C061E0812F0E94630333
:1005F000DF91CF911F910895282F3327C901825889
:100600009F4FFC0194912E563F4FF901849188230E
:1006100081F0E82FFF27E055FF4FE491FF27662385
:1006200029F4808190958923808308958081892B86
:1006300080830895482F5527CA0186599F4FFC0192
:100640002491CA0182589F4FFC0194914E565F4FEE
:10065000FA0134913323A1F1222331F1233021F423
:10066000809180008F7705C0243031F48091800024
:100670008F7D8093800018C0213019F484B58F7766
:1006800004C0223021F484B58F7D84BD0DC0263096
:1006900021F48091B0008F7705C0273029F4809134
:1006A000B0008F7D8093B000E32FFF27EA55FF4F06
:1006B000E491FF278081892319F081E090E008957B
:1006C00080E090E00895482F5527CA0186599F4F32
:1006D000FC012491CA0182589F4FFC0194914E560F
:1006E0005F4FFA0134913323C1F1222331F12330DA
:1006F00021F4809180008F7705C0243031F48091FF
:1007000080008F7D8093800018C0213019F484B55B
:100710008F7704C0223021F484B58F7D84BD0DC055
:10072000263021F48091B0008F7705C0273029F45E
:100730008091B0008F7D8093B000E32FFF27E555B7
:10074000FF4FE491FF27662329F480819095892348
:10075000808308958081892B80830895EF92FF9292
:100760000F931F937B018C0122E030E040E050E0CA
:100770000E946F05205C3D4B404F5F4FCA01B9019D
:10078000A80197010E946F05215030404040504021
:10079000BB2757FDBA95A52F942F832F2F5F3F4F6F
:1007A0004F4F5F4F8093C50021502093C400E1EC70
:1007B000F0E0808180618083808188608083808197
:1007C000806880831F910F91FF90EF900895982F7C
:1007D0008091C00085FFFCCF9093C6000895809162
:1007E0000F019091100120910D0130910E01821B9B
:1007F000930B80589F4F60E870E00E943A0508957F
:1008000040910D0150910E0180910F0190911001C6
:100810008417950719F48FEF9FEF0895FA01EB5EA7
:10082000FE4F2081CA01019660E870E00E943A05FF
:1008300090930E0180930D01822F99270895809146
:100840000D0190910E019093100180930F01089576
:100850001F920F920FB60F9211242F933F934F9335
:100860005F936F937F938F939F93AF93BF93EF9318
:10087000FF934091C600E0910F01F0911001CF016C
:10088000019660E870E00E943A059C0180910D019C
:1008900090910E012817390739F0EB5EFE4F408327
:1008A0003093100120930F01FF91EF91BF91AF9111
:1008B0009F918F917F916F915F914F913F912F9178
:1008C0000F900FBE0F901F90189508950E94E70398
:1008D00008958AE00E9466040895CF93DF93EC01A7
:1008E00003C021960E94660488818823D1F7DF9196
:1008F000CF9108952F923F924F925F926F927F9285
:100900008F929F92AF92BF92CF92DF92EF92FF921F
:100910000F931F93CF93DF93CDB7DEB7A0970FB69A
:10092000F894DEBF0FBECDBF6B017C0119012A0117
:10093000611571058105910521F480E30E9466042B
:100940004BC06624772443015E010894A11CB11CAE
:100950008501060D171DC701B601A20191010E9474
:100960004D05F80160830894611C711C811C911C69
:10097000C701B601A20191010E944D0569017A01EA
:10098000211531054105510519F773010894E10856
:10099000F108EA0CFB1CAA24BB24650111C0F70175
:1009A00080818A3010F4805D01C0895C0E946604F9
:1009B0000894A108B108C108D1080894E108F10819
:1009C00088279927DC0186199709A809B909A8166B
:1009D000B906CA06DB0619F7A0960FB6F894DEBF73
:1009E0000FBECDBFDF91CF911F910F91FF90EF9080
:1009F000DF90CF90BF90AF909F908F907F906F903F
:100A00005F904F903F902F900895EF92FF920F9339
:100A10001F937B018C0197FF0BC08DE20E9466043F
:100A200010950095F094E094E11CF11C011D111D3E
:100A30002AE030E040E050E0C801B7010E947A04AB
:100A40001F910F91FF90EF90089520E130E040E07A
:100A500050E00E947A04089528E030E040E050E041
:100A60000E947A04089522E030E040E050E00E94C5
:100A70007A04089597FB092E07260AD077FD04D043
:100A800049D006D000201AF4709561957F4F0895E3
:100A9000F6F7909581959F4F0895A1E21A2EAA1B13
:100AA000BB1BFD010DC0AA1FBB1FEE1FFF1FA2171E
:100AB000B307E407F50720F0A21BB30BE40BF50B1B
:100AC000661F771F881F991F1A9469F760957095A4
:100AD000809590959B01AC01BD01CF01089597FBD6
:100AE000092E05260ED057FD04D0D7DF0AD0001CF2
:100AF00038F450954095309521953F4F4F4F5F4FBB
:100B00000895F6F790958095709561957F4F8F4F7A
:100B10009F4F0895AA1BBB1B51E107C0AA1FBB1F13
:100B2000A617B70710F0A61BB70B881F991F5A9579
:100B3000A9F780959095BC01CD010895EE0FFF1F98
:080B40000590F491E02D0994E9
:0C0B48000B000A00090006000500030075
:00000001FF
